Archive member included to satisfy reference by file (symbol)

c:/program files (x86)/atmel/studio/7.0/toolchain/avr8/avr8-gnu-toolchain/bin/../lib/gcc/avr/5.4.0/../../../../avr/lib/avr51\libm.a(addsf3.o)
                              CruiseControl.o (__subsf3)
c:/program files (x86)/atmel/studio/7.0/toolchain/avr8/avr8-gnu-toolchain/bin/../lib/gcc/avr/5.4.0/../../../../avr/lib/avr51\libm.a(addsf3x.o)
                              c:/program files (x86)/atmel/studio/7.0/toolchain/avr8/avr8-gnu-toolchain/bin/../lib/gcc/avr/5.4.0/../../../../avr/lib/avr51\libm.a(addsf3.o) (__addsf3x)
c:/program files (x86)/atmel/studio/7.0/toolchain/avr8/avr8-gnu-toolchain/bin/../lib/gcc/avr/5.4.0/../../../../avr/lib/avr51\libm.a(ceil.o)
                              CruiseControl.o (ceil)
c:/program files (x86)/atmel/studio/7.0/toolchain/avr8/avr8-gnu-toolchain/bin/../lib/gcc/avr/5.4.0/../../../../avr/lib/avr51\libm.a(cmpsf2.o)
                              CruiseControl.o (__ltsf2)
c:/program files (x86)/atmel/studio/7.0/toolchain/avr8/avr8-gnu-toolchain/bin/../lib/gcc/avr/5.4.0/../../../../avr/lib/avr51\libm.a(divsf3.o)
                              CruiseControl.o (__divsf3)
c:/program files (x86)/atmel/studio/7.0/toolchain/avr8/avr8-gnu-toolchain/bin/../lib/gcc/avr/5.4.0/../../../../avr/lib/avr51\libm.a(divsf3x.o)
                              c:/program files (x86)/atmel/studio/7.0/toolchain/avr8/avr8-gnu-toolchain/bin/../lib/gcc/avr/5.4.0/../../../../avr/lib/avr51\libm.a(divsf3.o) (__divsf3x)
c:/program files (x86)/atmel/studio/7.0/toolchain/avr8/avr8-gnu-toolchain/bin/../lib/gcc/avr/5.4.0/../../../../avr/lib/avr51\libm.a(fixsfsi.o)
                              GFX.o (__fixsfsi)
c:/program files (x86)/atmel/studio/7.0/toolchain/avr8/avr8-gnu-toolchain/bin/../lib/gcc/avr/5.4.0/../../../../avr/lib/avr51\libm.a(fixunssfsi.o)
                              CruiseControl.o (__fixunssfsi)
c:/program files (x86)/atmel/studio/7.0/toolchain/avr8/avr8-gnu-toolchain/bin/../lib/gcc/avr/5.4.0/../../../../avr/lib/avr51\libm.a(floatsisf.o)
                              CruiseControl.o (__floatunsisf)
c:/program files (x86)/atmel/studio/7.0/toolchain/avr8/avr8-gnu-toolchain/bin/../lib/gcc/avr/5.4.0/../../../../avr/lib/avr51\libm.a(floor.o)
                              CruiseControl.o (floor)
c:/program files (x86)/atmel/studio/7.0/toolchain/avr8/avr8-gnu-toolchain/bin/../lib/gcc/avr/5.4.0/../../../../avr/lib/avr51\libm.a(fp_cmp.o)
                              c:/program files (x86)/atmel/studio/7.0/toolchain/avr8/avr8-gnu-toolchain/bin/../lib/gcc/avr/5.4.0/../../../../avr/lib/avr51\libm.a(cmpsf2.o) (__fp_cmp)
c:/program files (x86)/atmel/studio/7.0/toolchain/avr8/avr8-gnu-toolchain/bin/../lib/gcc/avr/5.4.0/../../../../avr/lib/avr51\libm.a(fp_inf.o)
                              c:/program files (x86)/atmel/studio/7.0/toolchain/avr8/avr8-gnu-toolchain/bin/../lib/gcc/avr/5.4.0/../../../../avr/lib/avr51\libm.a(addsf3x.o) (__fp_inf)
c:/program files (x86)/atmel/studio/7.0/toolchain/avr8/avr8-gnu-toolchain/bin/../lib/gcc/avr/5.4.0/../../../../avr/lib/avr51\libm.a(fp_mintl.o)
                              c:/program files (x86)/atmel/studio/7.0/toolchain/avr8/avr8-gnu-toolchain/bin/../lib/gcc/avr/5.4.0/../../../../avr/lib/avr51\libm.a(ceil.o) (__fp_mintl)
c:/program files (x86)/atmel/studio/7.0/toolchain/avr8/avr8-gnu-toolchain/bin/../lib/gcc/avr/5.4.0/../../../../avr/lib/avr51\libm.a(fp_mpack.o)
                              c:/program files (x86)/atmel/studio/7.0/toolchain/avr8/avr8-gnu-toolchain/bin/../lib/gcc/avr/5.4.0/../../../../avr/lib/avr51\libm.a(ceil.o) (__fp_mpack)
c:/program files (x86)/atmel/studio/7.0/toolchain/avr8/avr8-gnu-toolchain/bin/../lib/gcc/avr/5.4.0/../../../../avr/lib/avr51\libm.a(fp_nan.o)
                              c:/program files (x86)/atmel/studio/7.0/toolchain/avr8/avr8-gnu-toolchain/bin/../lib/gcc/avr/5.4.0/../../../../avr/lib/avr51\libm.a(addsf3x.o) (__fp_nan)
c:/program files (x86)/atmel/studio/7.0/toolchain/avr8/avr8-gnu-toolchain/bin/../lib/gcc/avr/5.4.0/../../../../avr/lib/avr51\libm.a(fp_pscA.o)
                              c:/program files (x86)/atmel/studio/7.0/toolchain/avr8/avr8-gnu-toolchain/bin/../lib/gcc/avr/5.4.0/../../../../avr/lib/avr51\libm.a(addsf3x.o) (__fp_pscA)
c:/program files (x86)/atmel/studio/7.0/toolchain/avr8/avr8-gnu-toolchain/bin/../lib/gcc/avr/5.4.0/../../../../avr/lib/avr51\libm.a(fp_pscB.o)
                              c:/program files (x86)/atmel/studio/7.0/toolchain/avr8/avr8-gnu-toolchain/bin/../lib/gcc/avr/5.4.0/../../../../avr/lib/avr51\libm.a(addsf3x.o) (__fp_pscB)
c:/program files (x86)/atmel/studio/7.0/toolchain/avr8/avr8-gnu-toolchain/bin/../lib/gcc/avr/5.4.0/../../../../avr/lib/avr51\libm.a(fp_round.o)
                              c:/program files (x86)/atmel/studio/7.0/toolchain/avr8/avr8-gnu-toolchain/bin/../lib/gcc/avr/5.4.0/../../../../avr/lib/avr51\libm.a(addsf3.o) (__fp_round)
c:/program files (x86)/atmel/studio/7.0/toolchain/avr8/avr8-gnu-toolchain/bin/../lib/gcc/avr/5.4.0/../../../../avr/lib/avr51\libm.a(fp_split3.o)
                              c:/program files (x86)/atmel/studio/7.0/toolchain/avr8/avr8-gnu-toolchain/bin/../lib/gcc/avr/5.4.0/../../../../avr/lib/avr51\libm.a(addsf3x.o) (__fp_split3)
c:/program files (x86)/atmel/studio/7.0/toolchain/avr8/avr8-gnu-toolchain/bin/../lib/gcc/avr/5.4.0/../../../../avr/lib/avr51\libm.a(fp_trunc.o)
                              c:/program files (x86)/atmel/studio/7.0/toolchain/avr8/avr8-gnu-toolchain/bin/../lib/gcc/avr/5.4.0/../../../../avr/lib/avr51\libm.a(ceil.o) (__fp_trunc)
c:/program files (x86)/atmel/studio/7.0/toolchain/avr8/avr8-gnu-toolchain/bin/../lib/gcc/avr/5.4.0/../../../../avr/lib/avr51\libm.a(fp_zero.o)
                              c:/program files (x86)/atmel/studio/7.0/toolchain/avr8/avr8-gnu-toolchain/bin/../lib/gcc/avr/5.4.0/../../../../avr/lib/avr51\libm.a(addsf3x.o) (__fp_zero)
c:/program files (x86)/atmel/studio/7.0/toolchain/avr8/avr8-gnu-toolchain/bin/../lib/gcc/avr/5.4.0/../../../../avr/lib/avr51\libm.a(gesf2.o)
                              CruiseControl.o (__gesf2)
c:/program files (x86)/atmel/studio/7.0/toolchain/avr8/avr8-gnu-toolchain/bin/../lib/gcc/avr/5.4.0/../../../../avr/lib/avr51\libm.a(mulsf3.o)
                              CruiseControl.o (__mulsf3)
c:/program files (x86)/atmel/studio/7.0/toolchain/avr8/avr8-gnu-toolchain/bin/../lib/gcc/avr/5.4.0/../../../../avr/lib/avr51\libm.a(mulsf3x.o)
                              c:/program files (x86)/atmel/studio/7.0/toolchain/avr8/avr8-gnu-toolchain/bin/../lib/gcc/avr/5.4.0/../../../../avr/lib/avr51\libm.a(mulsf3.o) (__mulsf3x)
c:/program files (x86)/atmel/studio/7.0/toolchain/avr8/avr8-gnu-toolchain/bin/../lib/gcc/avr/5.4.0/../../../../avr/lib/avr51\libm.a(round.o)
                              GFX.o (round)
c:/program files (x86)/atmel/studio/7.0/toolchain/avr8/avr8-gnu-toolchain/bin/../lib/gcc/avr/5.4.0/../../../../avr/lib/avr51\libprintf_flt.a(vfprintf_flt.o)
                              (vfprintf)
c:/program files (x86)/atmel/studio/7.0/toolchain/avr8/avr8-gnu-toolchain/bin/../lib/gcc/avr/5.4.0/avr51\libgcc.a(_divmodsi4.o)
                              GFX.o (__divmodsi4)
c:/program files (x86)/atmel/studio/7.0/toolchain/avr8/avr8-gnu-toolchain/bin/../lib/gcc/avr/5.4.0/avr51\libgcc.a(_negsi2.o)
                              c:/program files (x86)/atmel/studio/7.0/toolchain/avr8/avr8-gnu-toolchain/bin/../lib/gcc/avr/5.4.0/avr51\libgcc.a(_divmodsi4.o) (__negsi2)
c:/program files (x86)/atmel/studio/7.0/toolchain/avr8/avr8-gnu-toolchain/bin/../lib/gcc/avr/5.4.0/avr51\libgcc.a(_exit.o)
                              C:/Program Files (x86)/Atmel/Studio/7.0/Packs/atmel/ATmega_DFP/1.2.150/gcc/dev/at90can128/avr51/crtat90can128.o (exit)
c:/program files (x86)/atmel/studio/7.0/toolchain/avr8/avr8-gnu-toolchain/bin/../lib/gcc/avr/5.4.0/avr51\libgcc.a(_tablejump2.o)
                              twiLib.o (__tablejump2__)
c:/program files (x86)/atmel/studio/7.0/toolchain/avr8/avr8-gnu-toolchain/bin/../lib/gcc/avr/5.4.0/avr51\libgcc.a(_copy_data.o)
                              DetailView.o (__do_copy_data)
c:/program files (x86)/atmel/studio/7.0/toolchain/avr8/avr8-gnu-toolchain/bin/../lib/gcc/avr/5.4.0/avr51\libgcc.a(_clear_bss.o)
                              ADC.o (__do_clear_bss)
c:/program files (x86)/atmel/studio/7.0/toolchain/avr8/avr8-gnu-toolchain/bin/../lib/gcc/avr/5.4.0/avr51\libgcc.a(_udivmodsi4.o)
                              c:/program files (x86)/atmel/studio/7.0/toolchain/avr8/avr8-gnu-toolchain/bin/../lib/gcc/avr/5.4.0/avr51\libgcc.a(_divmodsi4.o) (__udivmodsi4)
c:/program files (x86)/atmel/studio/7.0/toolchain/avr8/avr8-gnu-toolchain/bin/../lib/gcc/avr/5.4.0/../../../../avr/lib/avr51\libc.a(ftoa_engine.o)
                              c:/program files (x86)/atmel/studio/7.0/toolchain/avr8/avr8-gnu-toolchain/bin/../lib/gcc/avr/5.4.0/../../../../avr/lib/avr51\libprintf_flt.a(vfprintf_flt.o) (__ftoa_engine)
c:/program files (x86)/atmel/studio/7.0/toolchain/avr8/avr8-gnu-toolchain/bin/../lib/gcc/avr/5.4.0/../../../../avr/lib/avr51\libc.a(strnlen_P.o)
                              c:/program files (x86)/atmel/studio/7.0/toolchain/avr8/avr8-gnu-toolchain/bin/../lib/gcc/avr/5.4.0/../../../../avr/lib/avr51\libprintf_flt.a(vfprintf_flt.o) (strnlen_P)
c:/program files (x86)/atmel/studio/7.0/toolchain/avr8/avr8-gnu-toolchain/bin/../lib/gcc/avr/5.4.0/../../../../avr/lib/avr51\libc.a(strnlen.o)
                              c:/program files (x86)/atmel/studio/7.0/toolchain/avr8/avr8-gnu-toolchain/bin/../lib/gcc/avr/5.4.0/../../../../avr/lib/avr51\libprintf_flt.a(vfprintf_flt.o) (strnlen)
c:/program files (x86)/atmel/studio/7.0/toolchain/avr8/avr8-gnu-toolchain/bin/../lib/gcc/avr/5.4.0/../../../../avr/lib/avr51\libc.a(fputc.o)
                              c:/program files (x86)/atmel/studio/7.0/toolchain/avr8/avr8-gnu-toolchain/bin/../lib/gcc/avr/5.4.0/../../../../avr/lib/avr51\libprintf_flt.a(vfprintf_flt.o) (fputc)
c:/program files (x86)/atmel/studio/7.0/toolchain/avr8/avr8-gnu-toolchain/bin/../lib/gcc/avr/5.4.0/../../../../avr/lib/avr51\libc.a(sprintf.o)
                              DetailView.o (sprintf)
c:/program files (x86)/atmel/studio/7.0/toolchain/avr8/avr8-gnu-toolchain/bin/../lib/gcc/avr/5.4.0/../../../../avr/lib/avr51\libc.a(ultoa_invert.o)
                              c:/program files (x86)/atmel/studio/7.0/toolchain/avr8/avr8-gnu-toolchain/bin/../lib/gcc/avr/5.4.0/../../../../avr/lib/avr51\libprintf_flt.a(vfprintf_flt.o) (__ultoa_invert)

Allocating common symbols
Common symbol       size              file

twi_state           0x1               twiLib.o
twi_masterBufferLength
                    0x1               twiLib.o
twi_rxBuffer        0x20              twiLib.o
twi_txBufferIndex   0x1               twiLib.o
twi_rxBufferIndex   0x1               twiLib.o
twi_error           0x1               twiLib.o
twi_txBufferLength  0x1               twiLib.o
twi_sendStop        0x1               twiLib.o
twi_txBuffer        0x20              twiLib.o
twi_inRepStart      0x1               twiLib.o
rxBuffer            0x20              Wire.o
twi_masterBuffer    0x20              twiLib.o
txBuffer            0x20              Wire.o
twi_masterBufferIndex
                    0x1               twiLib.o
twi_slarw           0x1               twiLib.o

Discarded input sections

 .data          0x00000000        0x0 C:/Program Files (x86)/Atmel/Studio/7.0/Packs/atmel/ATmega_DFP/1.2.150/gcc/dev/at90can128/avr51/crtat90can128.o
 .bss           0x00000000        0x0 C:/Program Files (x86)/Atmel/Studio/7.0/Packs/atmel/ATmega_DFP/1.2.150/gcc/dev/at90can128/avr51/crtat90can128.o
 .text          0x00000000        0x0 ADC.o
 .data          0x00000000        0x0 ADC.o
 .bss           0x00000000        0x0 ADC.o
 .text          0x00000000        0x0 Controls.o
 .data          0x00000000        0x0 Controls.o
 .bss           0x00000000        0x0 Controls.o
 .text.Controls_onUp
                0x00000000        0x6 Controls.o
 .text.Controls_onDown
                0x00000000        0x6 Controls.o
 .text.Controls_onFront
                0x00000000        0x6 Controls.o
 .text.Controls_onBack
                0x00000000        0x6 Controls.o
 .text.Controls_onFastUp
                0x00000000        0x6 Controls.o
Memory Configuration

Name             Origin             Length             Attributes
text             0x00000000         0x00020000         xr
data             0x00800100         0x0000ff00         rw !x
eeprom           0x00810000         0x00010000         rw !x
fuse             0x00820000         0x00000003         rw !x
lock             0x00830000         0x00000400         rw !x
signature        0x00840000         0x00000400         rw !x
user_signatures  0x00850000         0x00000400         rw !x
*default*        0x00000000         0xffffffff

Linker script and memory map

Address of section .data set to 0x800100
LOAD C:/Program Files (x86)/Atmel/Studio/7.0/Packs/atmel/ATmega_DFP/1.2.150/gcc/dev/at90can128/avr51/crtat90can128.o
LOAD ADC.o
LOAD Controls.o
LOAD CruiseControl.o
LOAD DAC.o
LOAD DetailView.o
LOAD GFX.o
LOAD main.o
LOAD MainView.o
LOAD Security.o
LOAD SH1106.o
LOAD Speed.o
LOAD Throttle.o
LOAD twiLib.o
LOAD Watchdog.o
LOAD Wire.o
START GROUP
LOAD c:/program files (x86)/atmel/studio/7.0/toolchain/avr8/avr8-gnu-toolchain/bin/../lib/gcc/avr/5.4.0/../../../../avr/lib/avr51\libm.a
END GROUP
LOAD c:/program files (x86)/atmel/studio/7.0/toolchain/avr8/avr8-gnu-toolchain/bin/../lib/gcc/avr/5.4.0/../../../../avr/lib/avr51\libprintf_flt.a
START GROUP
LOAD c:/program files (x86)/atmel/studio/7.0/toolchain/avr8/avr8-gnu-toolchain/bin/../lib/gcc/avr/5.4.0/avr51\libgcc.a
LOAD c:/program files (x86)/atmel/studio/7.0/toolchain/avr8/avr8-gnu-toolchain/bin/../lib/gcc/avr/5.4.0/../../../../avr/lib/avr51\libm.a
LOAD c:/program files (x86)/atmel/studio/7.0/toolchain/avr8/avr8-gnu-toolchain/bin/../lib/gcc/avr/5.4.0/../../../../avr/lib/avr51\libc.a
LOAD C:/Program Files (x86)/Atmel/Studio/7.0/Packs/atmel/ATmega_DFP/1.2.150/gcc/dev/at90can128/avr51\libat90can128.a
END GROUP
                0x00020000                __TEXT_REGION_LENGTH__ = DEFINED (__TEXT_REGION_LENGTH__)?__TEXT_REGION_LENGTH__:0x20000
                0x0000ff00                __DATA_REGION_LENGTH__ = DEFINED (__DATA_REGION_LENGTH__)?__DATA_REGION_LENGTH__:0xff00
                0x00010000                __EEPROM_REGION_LENGTH__ = DEFINED (__EEPROM_REGION_LENGTH__)?__EEPROM_REGION_LENGTH__:0x10000
                [0x00000003]                __FUSE_REGION_LENGTH__ = DEFINED (__FUSE_REGION_LENGTH__)?__FUSE_REGION_LENGTH__:0x400
                0x00000400                __LOCK_REGION_LENGTH__ = DEFINED (__LOCK_REGION_LENGTH__)?__LOCK_REGION_LENGTH__:0x400
                0x00000400                __SIGNATURE_REGION_LENGTH__ = DEFINED (__SIGNATURE_REGION_LENGTH__)?__SIGNATURE_REGION_LENGTH__:0x400
                0x00000400                __USER_SIGNATURE_REGION_LENGTH__ = DEFINED (__USER_SIGNATURE_REGION_LENGTH__)?__USER_SIGNATURE_REGION_LENGTH__:0x400

.hash
 *(.hash)

.dynsym
 *(.dynsym)

.dynstr
 *(.dynstr)

.gnu.version
 *(.gnu.version)

.gnu.version_d
 *(.gnu.version_d)

.gnu.version_r
 *(.gnu.version_r)

.rel.init
 *(.rel.init)

.rela.init
 *(.rela.init)

.rel.text
 *(.rel.text)
 *(.rel.text.*)
 *(.rel.gnu.linkonce.t*)

.rela.text
 *(.rela.text)
 *(.rela.text.*)
 *(.rela.gnu.linkonce.t*)

.rel.fini
 *(.rel.fini)

.rela.fini
 *(.rela.fini)

.rel.rodata
 *(.rel.rodata)
 *(.rel.rodata.*)
 *(.rel.gnu.linkonce.r*)

.rela.rodata
 *(.rela.rodata)
 *(.rela.rodata.*)
 *(.rela.gnu.linkonce.r*)

.rel.data
 *(.rel.data)
 *(.rel.data.*)
 *(.rel.gnu.linkonce.d*)

.rela.data
 *(.rela.data)
 *(.rela.data.*)
 *(.rela.gnu.linkonce.d*)

.rel.ctors
 *(.rel.ctors)

.rela.ctors
 *(.rela.ctors)

.rel.dtors
 *(.rel.dtors)

.rela.dtors
 *(.rela.dtors)

.rel.got
 *(.rel.got)

.rela.got
 *(.rela.got)

.rel.bss
 *(.rel.bss)

.rela.bss
 *(.rela.bss)

.rel.plt
 *(.rel.plt)

.rela.plt
 *(.rela.plt)

.text           0x00000000     0x2e92
 *(.vectors)
 .vectors       0x00000000       0x94 C:/Program Files (x86)/Atmel/Studio/7.0/Packs/atmel/ATmega_DFP/1.2.150/gcc/dev/at90can128/avr51/crtat90can128.o
                0x00000000                __vector_default
                0x00000000                __vectors
 *(.vectors)
 *(.progmem.gcc*)
 .progmem.gcc_sw_table.__vector_35
                0x00000094      0x192 twiLib.o
                0x00000226                . = ALIGN (0x2)
                0x00000226                __trampolines_start = .
 *(.trampolines)
 .trampolines   0x00000226        0x0 linker stubs
 *(.trampolines*)
                0x00000226                __trampolines_end = .
 *libprintf_flt.a:*(.progmem.data)
 .progmem.data  0x00000226        0x8 c:/program files (x86)/atmel/studio/7.0/toolchain/avr8/avr8-gnu-toolchain/bin/../lib/gcc/avr/5.4.0/../../../../avr/lib/avr51\libprintf_flt.a(vfprintf_flt.o)
 *libc.a:*(.progmem.data)
 .progmem.data  0x0000022e       0xfa c:/program files (x86)/atmel/studio/7.0/toolchain/avr8/avr8-gnu-toolchain/bin/../lib/gcc/avr/5.4.0/../../../../avr/lib/avr51\libc.a(ftoa_engine.o)
 *(.progmem*)
 .progmem.data.font
                0x00000328      0x500 GFX.o
                0x00000828                . = ALIGN (0x2)
 *(.jumptables)
 *(.jumptables*)
 *(.lowtext)
 *(.lowtext*)
                0x00000828                __ctors_start = .
 *(.ctors)
                0x00000828                __ctors_end = .
                0x00000828                __dtors_start = .
 *(.dtors)
                0x00000828                __dtors_end = .
 SORT(*)(.ctors)
 SORT(*)(.dtors)
 *(.init0)
 .init0         0x00000828        0x0 C:/Program Files (x86)/Atmel/Studio/7.0/Packs/atmel/ATmega_DFP/1.2.150/gcc/dev/at90can128/avr51/crtat90can128.o
                0x00000828                __init
 *(.init0)
 *(.init1)
 *(.init1)
 *(.init2)
 .init2         0x00000828        0xc C:/Program Files (x86)/Atmel/Studio/7.0/Packs/atmel/ATmega_DFP/1.2.150/gcc/dev/at90can128/avr51/crtat90can128.o
 *(.init2)
 *(.init3)
 *(.init3)
 *(.init4)
 .init4         0x00000834       0x1a c:/program files (x86)/atmel/studio/7.0/toolchain/avr8/avr8-gnu-toolchain/bin/../lib/gcc/avr/5.4.0/avr51\libgcc.a(_copy_data.o)
                0x00000834                __do_copy_data
 .init4         0x0000084e       0x10 c:/program files (x86)/atmel/studio/7.0/toolchain/avr8/avr8-gnu-toolchain/bin/../lib/gcc/avr/5.4.0/avr51\libgcc.a(_clear_bss.o)
                0x0000084e                __do_clear_bss
 *(.init4)
 *(.init5)
 *(.init5)
 *(.init6)
 *(.init6)
 *(.init7)
 *(.init7)
 *(.init8)
 *(.init8)
 *(.init9)
 .init9         0x0000085e        0x6 C:/Program Files (x86)/Atmel/Studio/7.0/Packs/atmel/ATmega_DFP/1.2.150/gcc/dev/at90can128/avr51/crtat90can128.o
 *(.init9)
 *(.text)
 .text          0x00000864        0x2 C:/Program Files (x86)/Atmel/Studio/7.0/Packs/atmel/ATmega_DFP/1.2.150/gcc/dev/at90can128/avr51/crtat90can128.o
                0x00000864                __vector_22
                0x00000864                __vector_28
                0x00000864                __vector_1
                0x00000864                __vector_32
                0x00000864                __vector_34
                0x00000864                __vector_24
                0x00000864                __bad_interrupt
                0x00000864                __vector_6
                0x00000864                __vector_31
                0x00000864                __vector_3
                0x00000864                __vector_23
                0x00000864                __vector_30
                0x00000864                __vector_11
                0x00000864                __vector_13
                0x00000864                __vector_19
                0x00000864                __vector_7
                0x00000864                __vector_27
                0x00000864                __vector_5
                0x00000864                __vector_33
                0x00000864                __vector_4
                0x00000864                __vector_9
                0x00000864                __vector_2
                0x00000864                __vector_21
                0x00000864                __vector_15
                0x00000864                __vector_36
                0x00000864                __vector_29
                0x00000864                __vector_26
                0x00000864                __vector_14
                0x00000864                __vector_10
                0x00000864                __vector_16
                0x00000864                __vector_18
                0x00000864                __vector_20
                0x00000866                . = ALIGN (0x2)
 *(.text.*)
 .text.ADC_init
                0x00000866       0x16 ADC.o
                0x00000866                ADC_init
 .text.ADC_getADC0
                0x0000087c        0xa ADC.o
                0x0000087c                ADC_getADC0
 .text.ADC_getADC1
                0x00000886        0xa ADC.o
                0x00000886                ADC_getADC1
 .text.__vector_25
                0x00000890       0x90 ADC.o
                0x00000890                __vector_25
 .text.Controls_init
                0x00000920       0x12 Controls.o
                0x00000920                Controls_init
 .text.Controls_handle
                0x00000932       0xca Controls.o
                0x00000932                Controls_handle
 .text.CC_setSetSpeed
                0x000009fc       0x30 CruiseControl.o
                0x000009fc                CC_setSetSpeed
 .text.CC_switchOn
                0x00000a2c       0x1e CruiseControl.o
                0x00000a2c                CC_switchOn
 .text.CC_switchOff
                0x00000a4a       0x1a CruiseControl.o
                0x00000a4a                CC_switchOff
 .text.CC_incrementSetSpeed
                0x00000a64        0xa CruiseControl.o
                0x00000a64                CC_incrementSetSpeed
 .text.CC_decrementSetSpeed
                0x00000a6e        0xa CruiseControl.o
                0x00000a6e                CC_decrementSetSpeed
 .text.CC_incrementSetSpeedFast
                0x00000a78       0x34 CruiseControl.o
                0x00000a78                CC_incrementSetSpeedFast
 .text.CC_decrementSetSpeedFast
                0x00000aac       0x34 CruiseControl.o
                0x00000aac                CC_decrementSetSpeedFast
 .text.CC_switchReset
                0x00000ae0       0x2c CruiseControl.o
                0x00000ae0                CC_switchReset
 .text.CC_isOn  0x00000b0c        0x6 CruiseControl.o
                0x00000b0c                CC_isOn
 .text.CC_getSetSpeed
                0x00000b12        0x6 CruiseControl.o
                0x00000b12                CC_getSetSpeed
 .text.CC_calculate
                0x00000b18      0x236 CruiseControl.o
                0x00000b18                CC_calculate
 .text.CC_getIntegerResult
                0x00000d4e       0x14 CruiseControl.o
                0x00000d4e                CC_getIntegerResult
 .text.DAC_init
                0x00000d62        0xe DAC.o
                0x00000d62                DAC_init
 .text.DAC_sendCommand
                0x00000d70       0x16 DAC.o
                0x00000d70                DAC_sendCommand
 .text.DAC_setDAC0
                0x00000d86        0x8 DAC.o
                0x00000d86                DAC_setDAC0
 .text.DAC_setDAC1
                0x00000d8e        0x8 DAC.o
                0x00000d8e                DAC_setDAC1
 .text.GFX_clearScreen
                0x00000d96        0x4 GFX.o
                0x00000d96                GFX_clearScreen
 .text.GFX_drawFastVLine
                0x00000d9a       0x40 GFX.o
                0x00000d9a                GFX_drawFastVLine
 .text.GFX_drawFastHLine
                0x00000dda       0x40 GFX.o
                0x00000dda                GFX_drawFastHLine
 .text.GFX_fillRect
                0x00000e1a       0x6e GFX.o
                0x00000e1a                GFX_fillRect
 .text.GFX_drawRect
                0x00000e88       0x5e GFX.o
                0x00000e88                GFX_drawRect
 .text.GFX_drawChar
                0x00000ee6      0x1dc GFX.o
                0x00000ee6                GFX_drawChar
 .text.GFX_drawString
                0x000010c2       0xa6 GFX.o
                0x000010c2                GFX_drawString
 .text.GFX_drawVProgressBar
                0x00001168      0x104 GFX.o
                0x00001168                GFX_drawVProgressBar
 .text.TIMER_init
                0x0000126c        0xc main.o
                0x0000126c                TIMER_init
 .text.init     0x00001278       0x14 main.o
                0x00001278                init
 .text.main     0x0000128c       0x10 main.o
                0x0000128c                main
 .text.__vector_17
                0x0000129c       0x70 main.o
                0x0000129c                __vector_17
 .text.MainView_render
                0x0000130c      0x1c4 MainView.o
                0x0000130c                MainView_render
 .text.Security_init
                0x000014d0        0x4 Security.o
                0x000014d0                Security_init
 .text.Security_check
                0x000014d4       0x14 Security.o
                0x000014d4                Security_check
 .text.SH1106_command
                0x000014e8       0x16 SH1106.o
                0x000014e8                SH1106_command
 .text.SH1106_init
                0x000014fe       0x68 SH1106.o
                0x000014fe                SH1106_init
 .text.SH1106_display
                0x00001566       0x76 SH1106.o
                0x00001566                SH1106_display
 .text.SH1106_drawPixel
                0x000015dc       0xe6 SH1106.o
                0x000015dc                SH1106_drawPixel
 .text.SH1106_clearBuffer
                0x000016c2       0x16 SH1106.o
                0x000016c2                SH1106_clearBuffer
 .text.Speed_init
                0x000016d8       0x26 Speed.o
                0x000016d8                Speed_init
 .text.Speed_getSpeed
                0x000016fe       0x12 Speed.o
                0x000016fe                Speed_getSpeed
 .text.Speed_getIntegerSpeed
                0x00001710       0x18 Speed.o
                0x00001710                Speed_getIntegerSpeed
 .text.__vector_8
                0x00001728       0x2e Speed.o
                0x00001728                __vector_8
 .text.__vector_12
                0x00001756       0x80 Speed.o
                0x00001756                __vector_12
 .text.Throttle_getPosition
                0x000017d6       0x36 Throttle.o
                0x000017d6                Throttle_getPosition
 .text.Throttle_getPositionScaled
                0x0000180c       0xf6 Throttle.o
                0x0000180c                Throttle_getPositionScaled
 .text.Throttle_setPosition
                0x00001902       0x34 Throttle.o
                0x00001902                Throttle_setPosition
 .text.Throttle_getSetPositionScaled
                0x00001936       0x82 Throttle.o
                0x00001936                Throttle_getSetPositionScaled
 .text.Throttle_limit
                0x000019b8       0x5e Throttle.o
                0x000019b8                Throttle_limit
 .text.twi_init
                0x00001a16       0x22 twiLib.o
                0x00001a16                twi_init
 .text.twi_transmit
                0x00001a38       0x52 twiLib.o
                0x00001a38                twi_transmit
 .text.twi_releaseBus
                0x00001a8a        0xc twiLib.o
                0x00001a8a                twi_releaseBus
 .text.twi_reset
                0x00001a96       0x10 twiLib.o
                0x00001a96                twi_reset
 .text.twi_writeTo
                0x00001aa6       0xfa twiLib.o
                0x00001aa6                twi_writeTo
 .text.twi_stop
                0x00001ba0       0x42 twiLib.o
                0x00001ba0                twi_stop
 .text.__vector_35
                0x00001be2      0x204 twiLib.o
                0x00001be2                __vector_35
 .text.Watchdog_init
                0x00001de6       0x16 Watchdog.o
                0x00001de6                Watchdog_init
 .text.Watchdog_kick
                0x00001dfc       0x26 Watchdog.o
                0x00001dfc                Watchdog_kick
 .text.Wire_init
                0x00001e22       0x14 Wire.o
                0x00001e22                Wire_init
 .text.Wire_beginTransmission
                0x00001e36       0x14 Wire.o
                0x00001e36                Wire_beginTransmission
 .text.Wire_endTransmission
                0x00001e4a       0x24 Wire.o
                0x00001e4a                Wire_endTransmission
 .text.Wire_endTransmissionWithStop
                0x00001e6e        0x6 Wire.o
                0x00001e6e                Wire_endTransmissionWithStop
 .text.Wire_write
                0x00001e74       0x48 Wire.o
                0x00001e74                Wire_write
 .text.avr-libc.fplib
                0x00001ebc        0xa c:/program files (x86)/atmel/studio/7.0/toolchain/avr8/avr8-gnu-toolchain/bin/../lib/gcc/avr/5.4.0/../../../../avr/lib/avr51\libm.a(addsf3.o)
                0x00001ebc                __subsf3
                0x00001ebe                __addsf3
 .text.avr-libc.fplib
                0x00001ec6       0xc0 c:/program files (x86)/atmel/studio/7.0/toolchain/avr8/avr8-gnu-toolchain/bin/../lib/gcc/avr/5.4.0/../../../../avr/lib/avr51\libm.a(addsf3x.o)
                0x00001ee0                __addsf3x
 .text.avr-libc.fplib
                0x00001f86       0x26 c:/program files (x86)/atmel/studio/7.0/toolchain/avr8/avr8-gnu-toolchain/bin/../lib/gcc/avr/5.4.0/../../../../avr/lib/avr51\libm.a(ceil.o)
                0x00001f86                ceil
 .text.avr-libc.fplib
                0x00001fac        0x8 c:/program files (x86)/atmel/studio/7.0/toolchain/avr8/avr8-gnu-toolchain/bin/../lib/gcc/avr/5.4.0/../../../../avr/lib/avr51\libm.a(cmpsf2.o)
                0x00001fac                __nesf2
                0x00001fac                __eqsf2
                0x00001fac                __cmpsf2
                0x00001fac                __ltsf2
                0x00001fac                __lesf2
 .text.avr-libc.fplib
                0x00001fb4        0x4 c:/program files (x86)/atmel/studio/7.0/toolchain/avr8/avr8-gnu-toolchain/bin/../lib/gcc/avr/5.4.0/../../../../avr/lib/avr51\libm.a(divsf3.o)
                0x00001fb4                __divsf3
 .text.avr-libc.fplib
                0x00001fb8       0xcc c:/program files (x86)/atmel/studio/7.0/toolchain/avr8/avr8-gnu-toolchain/bin/../lib/gcc/avr/5.4.0/../../../../avr/lib/avr51\libm.a(divsf3x.o)
                0x00001fce                __divsf3x
                0x00001fd2                __divsf3_pse
 .text.avr-libc.fplib
                0x00002084        0xa c:/program files (x86)/atmel/studio/7.0/toolchain/avr8/avr8-gnu-toolchain/bin/../lib/gcc/avr/5.4.0/../../../../avr/lib/avr51\libm.a(fixsfsi.o)
                0x00002084                __fixsfsi
 .text.avr-libc.fplib
                0x0000208e       0x58 c:/program files (x86)/atmel/studio/7.0/toolchain/avr8/avr8-gnu-toolchain/bin/../lib/gcc/avr/5.4.0/../../../../avr/lib/avr51\libm.a(fixunssfsi.o)
                0x0000208e                __fixunssfsi
 .text.avr-libc.fplib
                0x000020e6       0x7a c:/program files (x86)/atmel/studio/7.0/toolchain/avr8/avr8-gnu-toolchain/bin/../lib/gcc/avr/5.4.0/../../../../avr/lib/avr51\libm.a(floatsisf.o)
                0x000020e6                __floatunsisf
                0x000020ea                __floatsisf
 .text.avr-libc.fplib
                0x00002160       0x26 c:/program files (x86)/atmel/studio/7.0/toolchain/avr8/avr8-gnu-toolchain/bin/../lib/gcc/avr/5.4.0/../../../../avr/lib/avr51\libm.a(floor.o)
                0x00002160                floor
 .text.avr-libc.fplib
                0x00002186       0x48 c:/program files (x86)/atmel/studio/7.0/toolchain/avr8/avr8-gnu-toolchain/bin/../lib/gcc/avr/5.4.0/../../../../avr/lib/avr51\libm.a(fp_cmp.o)
                0x00002186                __fp_cmp
 .text.avr-libc.fplib
                0x000021ce        0xc c:/program files (x86)/atmel/studio/7.0/toolchain/avr8/avr8-gnu-toolchain/bin/../lib/gcc/avr/5.4.0/../../../../avr/lib/avr51\libm.a(fp_inf.o)
                0x000021ce                __fp_inf
 .text.avr-libc.fplib
                0x000021da       0x36 c:/program files (x86)/atmel/studio/7.0/toolchain/avr8/avr8-gnu-toolchain/bin/../lib/gcc/avr/5.4.0/../../../../avr/lib/avr51\libm.a(fp_mintl.o)
                0x000021da                __fp_mintl
 .text.avr-libc.fplib
                0x00002210       0x1c c:/program files (x86)/atmel/studio/7.0/toolchain/avr8/avr8-gnu-toolchain/bin/../lib/gcc/avr/5.4.0/../../../../avr/lib/avr51\libm.a(fp_mpack.o)
                0x00002210                __fp_mpack
                0x00002214                __fp_mpack_finite
 .text.avr-libc.fplib
                0x0000222c        0x6 c:/program files (x86)/atmel/studio/7.0/toolchain/avr8/avr8-gnu-toolchain/bin/../lib/gcc/avr/5.4.0/../../../../avr/lib/avr51\libm.a(fp_nan.o)
                0x0000222c                __fp_nan
 .text.avr-libc.fplib
                0x00002232        0xe c:/program files (x86)/atmel/studio/7.0/toolchain/avr8/avr8-gnu-toolchain/bin/../lib/gcc/avr/5.4.0/../../../../avr/lib/avr51\libm.a(fp_pscA.o)
                0x00002232                __fp_pscA
 .text.avr-libc.fplib
                0x00002240        0xe c:/program files (x86)/atmel/studio/7.0/toolchain/avr8/avr8-gnu-toolchain/bin/../lib/gcc/avr/5.4.0/../../../../avr/lib/avr51\libm.a(fp_pscB.o)
                0x00002240                __fp_pscB
 .text.avr-libc.fplib
                0x0000224e       0x22 c:/program files (x86)/atmel/studio/7.0/toolchain/avr8/avr8-gnu-toolchain/bin/../lib/gcc/avr/5.4.0/../../../../avr/lib/avr51\libm.a(fp_round.o)
                0x0000224e                __fp_round
 .text.avr-libc.fplib
                0x00002270       0x44 c:/program files (x86)/atmel/studio/7.0/toolchain/avr8/avr8-gnu-toolchain/bin/../lib/gcc/avr/5.4.0/../../../../avr/lib/avr51\libm.a(fp_split3.o)
                0x00002270                __fp_split3
                0x00002280                __fp_splitA
 .text.avr-libc.fplib
                0x000022b4       0x2e c:/program files (x86)/atmel/studio/7.0/toolchain/avr8/avr8-gnu-toolchain/bin/../lib/gcc/avr/5.4.0/../../../../avr/lib/avr51\libm.a(fp_trunc.o)
                0x000022b4                __fp_trunc
 .text.avr-libc.fplib
                0x000022e2        0xe c:/program files (x86)/atmel/studio/7.0/toolchain/avr8/avr8-gnu-toolchain/bin/../lib/gcc/avr/5.4.0/../../../../avr/lib/avr51\libm.a(fp_zero.o)
                0x000022e2                __fp_zero
                0x000022e4                __fp_szero
 .text.avr-libc.fplib
                0x000022f0        0x8 c:/program files (x86)/atmel/studio/7.0/toolchain/avr8/avr8-gnu-toolchain/bin/../lib/gcc/avr/5.4.0/../../../../avr/lib/avr51\libm.a(gesf2.o)
                0x000022f0                __gesf2
                0x000022f0                __gtsf2
 .text.avr-libc.fplib
                0x000022f8        0x4 c:/program files (x86)/atmel/studio/7.0/toolchain/avr8/avr8-gnu-toolchain/bin/../lib/gcc/avr/5.4.0/../../../../avr/lib/avr51\libm.a(mulsf3.o)
                0x000022f8                __mulsf3
 .text.avr-libc.fplib
                0x000022fc       0xc2 c:/program files (x86)/atmel/studio/7.0/toolchain/avr8/avr8-gnu-toolchain/bin/../lib/gcc/avr/5.4.0/../../../../avr/lib/avr51\libm.a(mulsf3x.o)
                0x00002310                __mulsf3x
                0x00002314                __mulsf3_pse
 .text.avr-libc.fplib
                0x000023be       0x40 c:/program files (x86)/atmel/studio/7.0/toolchain/avr8/avr8-gnu-toolchain/bin/../lib/gcc/avr/5.4.0/../../../../avr/lib/avr51\libm.a(round.o)
                0x000023be                round
 .text.avr-libc
                0x000023fe      0x712 c:/program files (x86)/atmel/studio/7.0/toolchain/avr8/avr8-gnu-toolchain/bin/../lib/gcc/avr/5.4.0/../../../../avr/lib/avr51\libprintf_flt.a(vfprintf_flt.o)
                0x000023fe                vfprintf
 .text.libgcc   0x00002b10       0x12 c:/program files (x86)/atmel/studio/7.0/toolchain/avr8/avr8-gnu-toolchain/bin/../lib/gcc/avr/5.4.0/avr51\libgcc.a(_tablejump2.o)
                0x00002b10                __tablejump2__
 .text.avr-libc
                0x00002b22      0x1b0 c:/program files (x86)/atmel/studio/7.0/toolchain/avr8/avr8-gnu-toolchain/bin/../lib/gcc/avr/5.4.0/../../../../avr/lib/avr51\libc.a(ftoa_engine.o)
                0x00002b22                __ftoa_engine
 .text.avr-libc
                0x00002cd2       0x16 c:/program files (x86)/atmel/studio/7.0/toolchain/avr8/avr8-gnu-toolchain/bin/../lib/gcc/avr/5.4.0/../../../../avr/lib/avr51\libc.a(strnlen_P.o)
                0x00002cd2                strnlen_P
 .text.avr-libc
                0x00002ce8       0x16 c:/program files (x86)/atmel/studio/7.0/toolchain/avr8/avr8-gnu-toolchain/bin/../lib/gcc/avr/5.4.0/../../../../avr/lib/avr51\libc.a(strnlen.o)
                0x00002ce8                strnlen
 .text.avr-libc
                0x00002cfe       0x78 c:/program files (x86)/atmel/studio/7.0/toolchain/avr8/avr8-gnu-toolchain/bin/../lib/gcc/avr/5.4.0/../../../../avr/lib/avr51\libc.a(fputc.o)
                0x00002cfe                fputc
 .text.avr-libc
                0x00002d76       0x5c c:/program files (x86)/atmel/studio/7.0/toolchain/avr8/avr8-gnu-toolchain/bin/../lib/gcc/avr/5.4.0/../../../../avr/lib/avr51\libc.a(sprintf.o)
                0x00002d76                sprintf
 .text.avr-libc
                0x00002dd2       0xbc c:/program files (x86)/atmel/studio/7.0/toolchain/avr8/avr8-gnu-toolchain/bin/../lib/gcc/avr/5.4.0/../../../../avr/lib/avr51\libc.a(ultoa_invert.o)
                0x00002dd2                __ultoa_invert
                0x00002e8e                . = ALIGN (0x2)
 *(.fini9)
 .fini9         0x00002e8e        0x0 c:/program files (x86)/atmel/studio/7.0/toolchain/avr8/avr8-gnu-toolchain/bin/../lib/gcc/avr/5.4.0/avr51\libgcc.a(_exit.o)
                0x00002e8e                _exit
                0x00002e8e                exit
 *(.fini9)
 *(.fini8)
 *(.fini8)
 *(.fini7)
 *(.fini7)
 *(.fini6)
 *(.fini6)
 *(.fini5)
 *(.fini5)
 *(.fini4)
 *(.fini4)
 *(.fini3)
 *(.fini3)
 *(.fini2)
 *(.fini2)
 *(.fini1)
 *(.fini1)
 *(.fini0)
 .fini0         0x00002e8e        0x4 c:/program files (x86)/atmel/studio/7.0/toolchain/avr8/avr8-gnu-toolchain/bin/../lib/gcc/avr/5.4.0/avr51\libgcc.a(_exit.o)
 *(.fini0)
                0x00002e92                _etext = .

.data           0x00800100       0x18 load address 0x00002e92
                0x00800100                PROVIDE (__data_start, .)
 *(.data)
 *(.data*)
 *(.gnu.linkonce.d*)
 *(.rodata)
 *(.rodata*)
 .rodata.str1.1
                0x00800100       0x17 MainView.o
 *(.gnu.linkonce.r*)
                0x00800118                . = ALIGN (0x2)
 *fill*         0x00800117        0x1 
                0x00800118                _edata = .
                0x00800118                PROVIDE (__data_end, .)

.bss            0x00800118      0x4dd
                0x00800118                PROVIDE (__bss_start, .)
 *(.bss)
 *(.bss*)
 .bss.sampling1
                0x00800118        0x1 ADC.o
                0x00800118                sampling1
 .bss.ADC1Result
                0x00800119        0x2 ADC.o
                0x00800119                ADC1Result
 .bss.ADC0Result
                0x0080011b        0x2 ADC.o
                0x0080011b                ADC0Result
 .bss.backPressed
                0x0080011d        0x1 Controls.o
                0x0080011d                backPressed
 .bss.frontPressed
                0x0080011e        0x1 Controls.o
                0x0080011e                frontPressed
 .bss.downPressed
                0x0080011f        0x1 Controls.o
                0x0080011f                downPressed
 .bss.upPressed
                0x00800120        0x1 Controls.o
                0x00800120                upPressed
 .bss.CCResult  0x00800121        0x4 CruiseControl.o
                0x00800121                CCResult
 .bss.CCSAT     0x00800125        0x4 CruiseControl.o
                0x00800125                CCSAT
 .bss.CCPV      0x00800129        0x4 CruiseControl.o
                0x00800129                CCPV
 .bss.CCI       0x0080012d        0x4 CruiseControl.o
                0x0080012d                CCI
 .bss.CCSetpoint
                0x00800131        0x4 CruiseControl.o
                0x00800131                CCSetpoint
 .bss.CCError   0x00800135        0x4 CruiseControl.o
                0x00800135                CCError
 .bss.CCPreviousSpeed
                0x00800139        0x1 CruiseControl.o
                0x00800139                CCPreviousSpeed
 .bss.CCSetSpeed
                0x0080013a        0x1 CruiseControl.o
                0x0080013a                CCSetSpeed
 .bss.CCOn      0x0080013b        0x1 CruiseControl.o
                0x0080013b                CCOn
 .bss.buffer    0x0080013c      0x400 SH1106.o
 .bss.Speed     0x0080053c        0x4 Speed.o
                0x0080053c                Speed
 .bss.SpeedCount
                0x00800540        0x2 Speed.o
                0x00800540                SpeedCount
 .bss.ThrottlePosition
                0x00800542        0x2 Throttle.o
                0x00800542                ThrottlePosition
 .bss.WatchdogStatus
                0x00800544        0x1 Watchdog.o
                0x00800544                WatchdogStatus
 .bss.transmitting
                0x00800545        0x1 Wire.o
                0x00800545                transmitting
 .bss.txBufferLength
                0x00800546        0x1 Wire.o
                0x00800546                txBufferLength
 .bss.txBufferIndex
                0x00800547        0x1 Wire.o
                0x00800547                txBufferIndex
 .bss.txAddress
                0x00800548        0x1 Wire.o
                0x00800548                txAddress
 .bss.rxBufferLength
                0x00800549        0x1 Wire.o
                0x00800549                rxBufferLength
 .bss.rxBufferIndex
                0x0080054a        0x1 Wire.o
                0x0080054a                rxBufferIndex
 *(COMMON)
 COMMON         0x0080054b       0x6a twiLib.o
                0x0080054b                twi_state
                0x0080054c                twi_masterBufferLength
                0x0080054d                twi_rxBuffer
                0x0080056d                twi_txBufferIndex
                0x0080056e                twi_rxBufferIndex
                0x0080056f                twi_error
                0x00800570                twi_txBufferLength
                0x00800571                twi_sendStop
                0x00800572                twi_txBuffer
                0x00800592                twi_inRepStart
                0x00800593                twi_masterBuffer
                0x008005b3                twi_masterBufferIndex
                0x008005b4                twi_slarw
 COMMON         0x008005b5       0x40 Wire.o
                0x008005b5                rxBuffer
                0x008005d5                txBuffer
                0x008005f5                PROVIDE (__bss_end, .)
                0x00002e92                __data_load_start = LOADADDR (.data)
                0x00002eaa                __data_load_end = (__data_load_start + SIZEOF (.data))

.noinit         0x008005f5        0x0
                [!provide]                PROVIDE (__noinit_start, .)
 *(.noinit*)
                [!provide]                PROVIDE (__noinit_end, .)
                0x008005f5                _end = .
                [!provide]                PROVIDE (__heap_start, .)

.eeprom         0x00810000        0x0
 *(.eeprom*)
                0x00810000                __eeprom_end = .

.fuse
 *(.fuse)
 *(.lfuse)
 *(.hfuse)
 *(.efuse)

.lock
 *(.lock*)

.signature
 *(.signature*)

.user_signatures
 *(.user_signatures*)

.stab
 *(.stab)

.stabstr
 *(.stabstr)

.stab.excl
 *(.stab.excl)

.stab.exclstr
 *(.stab.exclstr)

.stab.index
 *(.stab.index)

.stab.indexstr
 *(.stab.indexstr)

.comment        0x00000000       0x5c
 *(.comment)
 .comment       0x00000000       0x30 ADC.o
                                 0x31 (size before relaxing)
 .comment       0x00000030       0x31 Controls.o
 .comment       0x00000030       0x31 CruiseControl.o
 .comment       0x00000030       0x31 DAC.o
 .comment       0x00000030       0x31 GFX.o
 .comment       0x00000030       0x31 main.o
 .comment       0x00000030       0x31 MainView.o
 .comment       0x00000030       0x31 Security.o
 .comment       0x00000030       0x31 SH1106.o
 .comment       0x00000030       0x31 Speed.o
 .comment       0x00000030       0x31 Throttle.o
 .comment       0x00000030       0x31 twiLib.o
 .comment       0x00000030       0x31 Watchdog.o
 .comment       0x00000030       0x31 Wire.o
 .comment       0x00000030       0x2c c:/program files (x86)/atmel/studio/7.0/toolchain/avr8/avr8-gnu-toolchain/bin/../lib/gcc/avr/5.4.0/../../../../avr/lib/avr51\libprintf_flt.a(vfprintf_flt.o)
                                 0x2d (size before relaxing)
 .comment       0x0000005c       0x31 c:/program files (x86)/atmel/studio/7.0/toolchain/avr8/avr8-gnu-toolchain/bin/../lib/gcc/avr/5.4.0/../../../../avr/lib/avr51\libc.a(fputc.o)
 .comment       0x0000005c       0x31 c:/program files (x86)/atmel/studio/7.0/toolchain/avr8/avr8-gnu-toolchain/bin/../lib/gcc/avr/5.4.0/../../../../avr/lib/avr51\libc.a(sprintf.o)

.note.gnu.avr.deviceinfo
                0x00000000       0x40
 .note.gnu.avr.deviceinfo
                0x00000000       0x40 C:/Program Files (x86)/Atmel/Studio/7.0/Packs/atmel/ATmega_DFP/1.2.150/gcc/dev/at90can128/avr51/crtat90can128.o

.note.gnu.build-id
 *(.note.gnu.build-id)

.debug
 *(.debug)

.line
 *(.line)

.debug_srcinfo
 *(.debug_srcinfo)

.debug_sfnames
 *(.debug_sfnames)

.debug_aranges  0x00000000      0x458
 *(.debug_aranges)
 .debug_aranges
                0x00000000       0x38 ADC.o
 .debug_aranges
                0x00000038       0x68 Controls.o
 .debug_aranges
                0x000000a0       0xa0 CruiseControl.o
 .debug_aranges
                0x00000140       0x38 DAC.o
 .debug_aranges
                0x00000178       0xb8 GFX.o
 .debug_aranges
                0x00000230       0x38 main.o
 .debug_aranges
                0x00000268       0x20 MainView.o
 .debug_aranges
                0x00000288       0x30 Security.o
 .debug_aranges
                0x000002b8       0x50 SH1106.o
 .debug_aranges
                0x00000308       0x40 Speed.o
 .debug_aranges
                0x00000348       0x48 Throttle.o
 .debug_aranges
                0x00000390       0x58 twiLib.o
 .debug_aranges
                0x000003e8       0x28 Watchdog.o
 .debug_aranges
                0x00000410       0x48 Wire.o

.debug_pubnames
 *(.debug_pubnames)

.debug_info     0x00000000     0x4f94
 *(.debug_info .gnu.linkonce.wi.*)
 .debug_info    0x00000000      0xa2d C:/Program Files (x86)/Atmel/Studio/7.0/Packs/atmel/ATmega_DFP/1.2.150/gcc/dev/at90can128/avr51/crtat90can128.o
 .debug_info    0x00000a2d      0x10b ADC.o
 .debug_info    0x00000b38      0x2fc Controls.o
 .debug_info    0x00000e34      0x418 CruiseControl.o
 .debug_info    0x0000124c      0x164 DAC.o
 .debug_info    0x000013b0     0x1fd3 GFX.o
 .debug_info    0x00003383      0x2bc main.o
 .debug_info    0x0000363f      0x4a1 MainView.o
 .debug_info    0x00003ae0      0x12e Security.o
 .debug_info    0x00003c0e      0x5aa SH1106.o
 .debug_info    0x000041b8      0x159 Speed.o
 .debug_info    0x00004311      0x2b1 Throttle.o
 .debug_info    0x000045c2      0x60a twiLib.o
 .debug_info    0x00004bcc      0x107 Watchdog.o
 .debug_info    0x00004cd3      0x2c1 Wire.o

.debug_abbrev   0x00000000     0x1a04
 *(.debug_abbrev)
 .debug_abbrev  0x00000000      0x9a0 C:/Program Files (x86)/Atmel/Studio/7.0/Packs/atmel/ATmega_DFP/1.2.150/gcc/dev/at90can128/avr51/crtat90can128.o
 .debug_abbrev  0x000009a0       0x90 ADC.o
 .debug_abbrev  0x00000a30       0xd6 Controls.o
 .debug_abbrev  0x00000b06      0x190 CruiseControl.o
 .debug_abbrev  0x00000c96       0xc5 DAC.o
 .debug_abbrev  0x00000d5b      0x1e5 GFX.o
 .debug_abbrev  0x00000f40       0xee main.o
 .debug_abbrev  0x0000102e       0xf5 MainView.o
 .debug_abbrev  0x00001123       0xe3 Security.o
 .debug_abbrev  0x00001206      0x17a SH1106.o
 .debug_abbrev  0x00001380      0x113 Speed.o
 .debug_abbrev  0x00001493      0x12c Throttle.o
 .debug_abbrev  0x000015bf      0x21b twiLib.o
 .debug_abbrev  0x000017da       0xc8 Watchdog.o
 .debug_abbrev  0x000018a2      0x162 Wire.o

.debug_line     0x00000000     0x2240
 *(.debug_line .debug_line.* .debug_line_end)
 .debug_line    0x00000000      0x175 C:/Program Files (x86)/Atmel/Studio/7.0/Packs/atmel/ATmega_DFP/1.2.150/gcc/dev/at90can128/avr51/crtat90can128.o
 .debug_line    0x00000175      0x11e ADC.o
 .debug_line    0x00000293      0x249 Controls.o
 .debug_line    0x000004dc      0x2ee CruiseControl.o
 .debug_line    0x000007ca      0x114 DAC.o
 .debug_line    0x000008de      0x77f GFX.o
 .debug_line    0x0000105d      0x207 main.o
 .debug_line    0x00001264      0x157 MainView.o
 .debug_line    0x000013bb      0x116 Security.o
 .debug_line    0x000014d1      0x28c SH1106.o
 .debug_line    0x0000175d      0x14e Speed.o
 .debug_line    0x000018ab      0x1e1 Throttle.o
 .debug_line    0x00001a8c      0x4c9 twiLib.o
 .debug_line    0x00001f55      0x139 Watchdog.o
 .debug_line    0x0000208e      0x1b2 Wire.o

.debug_frame    0x00000000      0xf44
 *(.debug_frame)
 .debug_frame   0x00000000       0x78 ADC.o
 .debug_frame   0x00000078       0xb4 Controls.o
 .debug_frame   0x0000012c      0x168 CruiseControl.o
 .debug_frame   0x00000294       0x54 DAC.o
 .debug_frame   0x000002e8      0x6d0 GFX.o
 .debug_frame   0x000009b8       0xa4 main.o
 .debug_frame   0x00000a5c       0x50 MainView.o
 .debug_frame   0x00000aac       0x44 Security.o
 .debug_frame   0x00000af0       0xb8 SH1106.o
 .debug_frame   0x00000ba8       0xc0 Speed.o
 .debug_frame   0x00000c68      0x110 Throttle.o
 .debug_frame   0x00000d78       0xf8 twiLib.o
 .debug_frame   0x00000e70       0x34 Watchdog.o
 .debug_frame   0x00000ea4       0xa0 Wire.o

.debug_str      0x00000000      0xf33
 *(.debug_str)
 .debug_str     0x00000000      0x39f C:/Program Files (x86)/Atmel/Studio/7.0/Packs/atmel/ATmega_DFP/1.2.150/gcc/dev/at90can128/avr51/crtat90can128.o
 .debug_str     0x0000039f      0x18e ADC.o
                                0x1c2 (size before relaxing)
 .debug_str     0x0000052d      0x162 Controls.o
                                0x2c3 (size before relaxing)
 .debug_str     0x0000068f      0x12f CruiseControl.o
                                0x310 (size before relaxing)
 .debug_str     0x000007be       0x42 DAC.o
                                0x1b4 (size before relaxing)
 .debug_str     0x00000800      0x242 GFX.o
                                0x3cf (size before relaxing)
 .debug_str     0x00000a42       0xdd main.o
                                0x2b2 (size before relaxing)
 .debug_str     0x00000b1f       0x60 MainView.o
                                0x236 (size before relaxing)
 .debug_str     0x00000b7f       0x23 Security.o
                                0x1d8 (size before relaxing)
 .debug_str     0x00000ba2       0xc3 SH1106.o
                                0x290 (size before relaxing)
 .debug_str     0x00000c65       0x2f Speed.o
                                0x1e9 (size before relaxing)
 .debug_str     0x00000c94       0x74 Throttle.o
                                0x28c (size before relaxing)
 .debug_str     0x00000d08      0x191 twiLib.o
                                0x319 (size before relaxing)
 .debug_str     0x00000e99       0x31 Watchdog.o
                                0x1bd (size before relaxing)
 .debug_str     0x00000eca       0x69 Wire.o
                                0x290 (size before relaxing)

.debug_loc      0x00000000     0x53c6
 *(.debug_loc)
 .debug_loc     0x00000000       0x70 ADC.o
 .debug_loc     0x00000070       0xdf CruiseControl.o
 .debug_loc     0x0000014f       0xfe DAC.o
 .debug_loc     0x0000024d     0x3dc3 GFX.o
 .debug_loc     0x00004010      0x135 main.o
 .debug_loc     0x00004145       0xba MainView.o
 .debug_loc     0x000041ff       0x20 Security.o
 .debug_loc     0x0000421f      0x307 SH1106.o
 .debug_loc     0x00004526      0x114 Speed.o
 .debug_loc     0x0000463a      0x3d3 Throttle.o
 .debug_loc     0x00004a0d      0x7a6 twiLib.o
 .debug_loc     0x000051b3       0x35 Watchdog.o
 .debug_loc     0x000051e8      0x1de Wire.o

.debug_macinfo
 *(.debug_macinfo)

.debug_weaknames
 *(.debug_weaknames)

.debug_funcnames
 *(.debug_funcnames)

.debug_typenames
 *(.debug_typenames)

.debug_varnames
 *(.debug_varnames)

.debug_pubtypes
 *(.debug_pubtypes)

.debug_ranges   0x00000000      0x3f0
 *(.debug_ranges)
 .debug_ranges  0x00000000       0x28 ADC.o
 .debug_ranges  0x00000028       0x58 Controls.o
 .debug_ranges  0x00000080       0x90 CruiseControl.o
 .debug_ranges  0x00000110       0x28 DAC.o
 .debug_ranges  0x00000138      0x108 GFX.o
 .debug_ranges  0x00000240       0x28 main.o
 .debug_ranges  0x00000268       0x10 MainView.o
 .debug_ranges  0x00000278       0x20 Security.o
 .debug_ranges  0x00000298       0x40 SH1106.o
 .debug_ranges  0x000002d8       0x30 Speed.o
 .debug_ranges  0x00000308       0x38 Throttle.o
 .debug_ranges  0x00000340       0x60 twiLib.o
 .debug_ranges  0x000003a0       0x18 Watchdog.o
 .debug_ranges  0x000003b8       0x38 Wire.o

.debug_macro
 *(.debug_macro)
OUTPUT(VitoCruise.elf elf32-avr)
LOAD linker stubs
